S00F00005072654C6162362E73726563A9
S11300000C9434000C9446000C9446000C94460066
S11300100C9446000C9446000C9446000C94460044
S11300200C9446000C9446000C9446000C94460034
S11300300C9446000C9446000C9446000C94460024
S11300400C9446000C9446000C9498000C944600C2
S11300500C9446000C9446000C9446000C94460004
S11300600C9446000C94460011241FBECFEFD8E038
S1130070DEBFCDBF21E0A0E0B1E001C01D92A230FF
S1130080B207E1F70E946C000C94C6000C940000C7
S11300908AB18E7F8AB98AB182608AB91092C0000F
S11300A0E1ECF0E01082808188698083E2ECF0E08A
S11300B0108280818660808387E690E09093C500FB
S11300C08093C40008958091C00088231CF480911B
S11300D0C600089580E00895F8948FEF87B984B13D
S11300E0806384B90E94480078940E9463008093DE
S11300F00001809100018823C1F3809100018F7772
S113010088B980910001882324F485B1806185B980
S113011003C085B18F7E85B98091000186FF04C03C
S113012085B1806285B9E1CF85B18F7D85B9DDCF99
S11301301F920F920FB60F9211242F933F934F9358
S11301405F936F937F938F939F93AF93BF93EF933B
S1130150FF93E6ECF0E08081809300018091000140
S11301608083808190E00E946300FF91EF91BF91B2
S1130170AF919F918F917F916F915F914F913F913B
S11301802F910F900FBE0F901F901895F894FFCFEA
S9030000FC
