S01100005072654C6162362D312E7372656349
S11300000C9434000C9446000C9446000C94460066
S11300100C9446000C9446000C9446000C94460044
S11300200C9446000C9446000C9446000C94460034
S11300300C9446000C9446000C9446000C94460024
S11300400C9446000C9446000C9446000C94460014
S11300500C9446000C9446000C9446000C94460004
S11300600C9446000C94460011241FBECFEFD8E038
S1130070DEBFCDBF21E0A0E0B1E001C01D92A13000
S1130080B207E1F70E9466000C948C000C94000007
S11300908AB182608AB98AB18E7F8AB91092C0000F
S11300A088E98093C10086E08093C20087E690E0EF
S11300B09093C5008093C40008958091C000882364
S11300C01CF48091C600089580E008958FEF87B9ED
S11300D084B1806384B90E9448000E945D008093CB
S11300E000018823D1F38F7788B980910001882398
S11300F024F485B1806185B903C085B18F7E85B94B
S11301008091000186FF04C085B1806285B9E5CF86
S10F011085B18F7D85B9E1CFF894FFCF55
S9030000FC
